{
	"_format": "hh-sol-artifact-1",
	"contractName": "Lotto",
	"sourceName": "contracts/Lotto.sol",
	"abi": [
		{
			"inputs": [
				{
					"internalType": "uint64",
					"name": "subscriptionId",
					"type": "uint64"
				}
			],
			"stateMutability": "nonpayable",
			"type": "constructor"
		},
		{
			"inputs": [
				{
					"internalType": "address",
					"name": "have",
					"type": "address"
				},
				{
					"internalType": "address",
					"name": "want",
					"type": "address"
				}
			],
			"name": "OnlyCoordinatorCanFulfill",
			"type": "error"
		},
		{
			"anonymous": false,
			"inputs": [
				{
					"indexed": true,
					"internalType": "uint256",
					"name": "giveawayId",
					"type": "uint256"
				},
				{
					"indexed": false,
					"internalType": "address[]",
					"name": "participants",
					"type": "address[]"
				}
			],
			"name": "GiveawayClosed",
			"type": "event"
		},
		{
			"anonymous": false,
			"inputs": [
				{
					"indexed": true,
					"internalType": "address",
					"name": "owner",
					"type": "address"
				},
				{
					"indexed": false,
					"internalType": "uint256",
					"name": "prize",
					"type": "uint256"
				},
				{
					"indexed": false,
					"internalType": "uint256",
					"name": "id",
					"type": "uint256"
				},
				{
					"indexed": true,
					"internalType": "uint256",
					"name": "timeLength",
					"type": "uint256"
				},
				{
					"indexed": false,
					"internalType": "uint256",
					"name": "startDate",
					"type": "uint256"
				},
				{
					"indexed": false,
					"internalType": "string",
					"name": "name",
					"type": "string"
				},
				{
					"indexed": false,
					"internalType": "uint256",
					"name": "maxParticipants",
					"type": "uint256"
				},
				{
					"indexed": false,
					"internalType": "uint8",
					"name": "totalWinners",
					"type": "uint8"
				}
			],
			"name": "GiveawayCreated",
			"type": "event"
		},
		{
			"anonymous": false,
			"inputs": [
				{
					"indexed": true,
					"internalType": "uint256",
					"name": "giveawayId",
					"type": "uint256"
				},
				{
					"indexed": true,
					"internalType": "address",
					"name": "player",
					"type": "address"
				}
			],
			"name": "GiveawayJoined",
			"type": "event"
		},
		{
			"anonymous": false,
			"inputs": [
				{
					"indexed": true,
					"internalType": "uint256",
					"name": "giveawayId",
					"type": "uint256"
				},
				{
					"indexed": true,
					"internalType": "address",
					"name": "winner",
					"type": "address"
				},
				{
					"indexed": false,
					"internalType": "uint256",
					"name": "value",
					"type": "uint256"
				}
			],
			"name": "GiveawayPrizeClaimed",
			"type": "event"
		},
		{
			"anonymous": false,
			"inputs": [
				{
					"indexed": true,
					"internalType": "uint256",
					"name": "giveawayId",
					"type": "uint256"
				},
				{
					"indexed": true,
					"internalType": "address[]",
					"name": "winners",
					"type": "address[]"
				}
			],
			"name": "GiveawayWon",
			"type": "event"
		},
		{
			"anonymous": false,
			"inputs": [
				{
					"indexed": true,
					"internalType": "address",
					"name": "from",
					"type": "address"
				},
				{
					"indexed": true,
					"internalType": "address",
					"name": "to",
					"type": "address"
				}
			],
			"name": "OwnershipTransferRequested",
			"type": "event"
		},
		{
			"anonymous": false,
			"inputs": [
				{
					"indexed": true,
					"internalType": "address",
					"name": "from",
					"type": "address"
				},
				{
					"indexed": true,
					"internalType": "address",
					"name": "to",
					"type": "address"
				}
			],
			"name": "OwnershipTransferred",
			"type": "event"
		},
		{
			"stateMutability": "payable",
			"type": "fallback"
		},
		{
			"inputs": [],
			"name": "acceptOwnership",
			"outputs": [],
			"stateMutability": "nonpayable",
			"type": "function"
		},
		{
			"inputs": [
				{
					"internalType": "uint256",
					"name": "giveawayId",
					"type": "uint256"
				}
			],
			"name": "cancelGiveaway",
			"outputs": [],
			"stateMutability": "nonpayable",
			"type": "function"
		},
		{
			"inputs": [
				{
					"internalType": "uint256",
					"name": "giveawayId",
					"type": "uint256"
				}
			],
			"name": "claimPrize",
			"outputs": [],
			"stateMutability": "nonpayable",
			"type": "function"
		},
		{
			"inputs": [
				{
					"internalType": "uint256",
					"name": "giveawayId",
					"type": "uint256"
				}
			],
			"name": "closeGiveaway",
			"outputs": [],
			"stateMutability": "nonpayable",
			"type": "function"
		},
		{
			"inputs": [
				{
					"internalType": "address",
					"name": "sender",
					"type": "address"
				},
				{
					"internalType": "uint256",
					"name": "timeLength",
					"type": "uint256"
				},
				{
					"internalType": "string",
					"name": "name",
					"type": "string"
				},
				{
					"internalType": "uint8",
					"name": "totalWinners",
					"type": "uint8"
				},
				{
					"internalType": "uint256",
					"name": "maxParticipants",
					"type": "uint256"
				}
			],
			"name": "createGiveaway",
			"outputs": [
				{
					"internalType": "uint256",
					"name": "",
					"type": "uint256"
				},
				{
					"internalType": "bool",
					"name": "",
					"type": "bool"
				}
			],
			"stateMutability": "payable",
			"type": "function"
		},
		{
			"inputs": [
				{
					"internalType": "uint256",
					"name": "giveawayId",
					"type": "uint256"
				}
			],
			"name": "enterGiveaway",
			"outputs": [],
			"stateMutability": "nonpayable",
			"type": "function"
		},
		{
			"inputs": [],
			"name": "getCancelledGiveaways",
			"outputs": [
				{
					"internalType": "uint256[]",
					"name": "",
					"type": "uint256[]"
				}
			],
			"stateMutability": "view",
			"type": "function"
		},
		{
			"inputs": [],
			"name": "getFinishedGiveaways",
			"outputs": [
				{
					"internalType": "uint256[]",
					"name": "",
					"type": "uint256[]"
				}
			],
			"stateMutability": "view",
			"type": "function"
		},
		{
			"inputs": [
				{
					"internalType": "uint256",
					"name": "giveawayId",
					"type": "uint256"
				}
			],
			"name": "getGiveaway",
			"outputs": [
				{
					"components": [
						{
							"components": [
								{
									"internalType": "uint256",
									"name": "id",
									"type": "uint256"
								},
								{
									"internalType": "uint256",
									"name": "startDate",
									"type": "uint256"
								},
								{
									"internalType": "uint8",
									"name": "totalWinners",
									"type": "uint8"
								}
							],
							"internalType": "struct Lotto.GiveawayBase",
							"name": "base",
							"type": "tuple"
						},
						{
							"internalType": "address",
							"name": "owner",
							"type": "address"
						},
						{
							"internalType": "string",
							"name": "giveawayName",
							"type": "string"
						},
						{
							"internalType": "address[]",
							"name": "winners",
							"type": "address[]"
						},
						{
							"internalType": "address[]",
							"name": "participants",
							"type": "address[]"
						},
						{
							"components": [
								{
									"internalType": "uint256",
									"name": "requestId",
									"type": "uint256"
								},
								{
									"internalType": "bool",
									"name": "exists",
									"type": "bool"
								},
								{
									"internalType": "bool",
									"name": "fulfilled",
									"type": "bool"
								},
								{
									"internalType": "uint256[]",
									"name": "randomWords",
									"type": "uint256[]"
								},
								{
									"internalType": "uint32",
									"name": "nums",
									"type": "uint32"
								}
							],
							"internalType": "struct Lotto.RequestStatus",
							"name": "requestStatus",
							"type": "tuple"
						},
						{
							"internalType": "uint256",
							"name": "timeLength",
							"type": "uint256"
						},
						{
							"internalType": "enum Lotto.GiveawayState",
							"name": "giveawayState",
							"type": "uint8"
						},
						{
							"internalType": "uint256",
							"name": "maxParticipants",
							"type": "uint256"
						},
						{
							"internalType": "uint256",
							"name": "amount",
							"type": "uint256"
						},
						{
							"internalType": "address[]",
							"name": "claimedWinners",
							"type": "address[]"
						}
					],
					"internalType": "struct Lotto.GiveawayInstance",
					"name": "",
					"type": "tuple"
				}
			],
			"stateMutability": "view",
			"type": "function"
		},
		{
			"inputs": [
				{
					"internalType": "uint256",
					"name": "giveawayId",
					"type": "uint256"
				}
			],
			"name": "getGiveawayClaimedWinners",
			"outputs": [
				{
					"internalType": "address[]",
					"name": "",
					"type": "address[]"
				}
			],
			"stateMutability": "view",
			"type": "function"
		},
		{
			"inputs": [
				{
					"internalType": "uint256",
					"name": "giveawayId",
					"type": "uint256"
				}
			],
			"name": "getGiveawayParticipants",
			"outputs": [
				{
					"internalType": "address[]",
					"name": "",
					"type": "address[]"
				}
			],
			"stateMutability": "view",
			"type": "function"
		},
		{
			"inputs": [
				{
					"internalType": "uint256",
					"name": "giveawayId",
					"type": "uint256"
				}
			],
			"name": "getGiveawayRequestStatus",
			"outputs": [
				{
					"components": [
						{
							"internalType": "uint256",
							"name": "requestId",
							"type": "uint256"
						},
						{
							"internalType": "bool",
							"name": "exists",
							"type": "bool"
						},
						{
							"internalType": "bool",
							"name": "fulfilled",
							"type": "bool"
						},
						{
							"internalType": "uint256[]",
							"name": "randomWords",
							"type": "uint256[]"
						},
						{
							"internalType": "uint32",
							"name": "nums",
							"type": "uint32"
						}
					],
					"internalType": "struct Lotto.RequestStatus",
					"name": "",
					"type": "tuple"
				}
			],
			"stateMutability": "view",
			"type": "function"
		},
		{
			"inputs": [
				{
					"internalType": "uint256",
					"name": "giveawayId",
					"type": "uint256"
				}
			],
			"name": "getGiveawayState",
			"outputs": [
				{
					"internalType": "enum Lotto.GiveawayState",
					"name": "",
					"type": "uint8"
				}
			],
			"stateMutability": "view",
			"type": "function"
		},
		{
			"inputs": [
				{
					"internalType": "uint256",
					"name": "giveawayId",
					"type": "uint256"
				}
			],
			"name": "getGiveawayWinners",
			"outputs": [
				{
					"internalType": "address[]",
					"name": "",
					"type": "address[]"
				}
			],
			"stateMutability": "view",
			"type": "function"
		},
		{
			"inputs": [],
			"name": "getLiveGiveaways",
			"outputs": [
				{
					"internalType": "uint256[]",
					"name": "",
					"type": "uint256[]"
				}
			],
			"stateMutability": "view",
			"type": "function"
		},
		{
			"inputs": [
				{
					"internalType": "address",
					"name": "giveawayOwner",
					"type": "address"
				}
			],
			"name": "getOwnerGiveaways",
			"outputs": [
				{
					"internalType": "uint256[]",
					"name": "",
					"type": "uint256[]"
				}
			],
			"stateMutability": "view",
			"type": "function"
		},
		{
			"inputs": [
				{
					"internalType": "uint256",
					"name": "_requestId",
					"type": "uint256"
				}
			],
			"name": "getRequestStatus",
			"outputs": [
				{
					"internalType": "bool",
					"name": "fulfilled",
					"type": "bool"
				},
				{
					"internalType": "uint256[]",
					"name": "randomWords",
					"type": "uint256[]"
				}
			],
			"stateMutability": "view",
			"type": "function"
		},
		{
			"inputs": [],
			"name": "giveawayCounter",
			"outputs": [
				{
					"internalType": "uint256",
					"name": "_value",
					"type": "uint256"
				}
			],
			"stateMutability": "view",
			"type": "function"
		},
		{
			"inputs": [
				{
					"internalType": "uint256",
					"name": "",
					"type": "uint256"
				}
			],
			"name": "giveaways",
			"outputs": [
				{
					"components": [
						{
							"internalType": "uint256",
							"name": "id",
							"type": "uint256"
						},
						{
							"internalType": "uint256",
							"name": "startDate",
							"type": "uint256"
						},
						{
							"internalType": "uint8",
							"name": "totalWinners",
							"type": "uint8"
						}
					],
					"internalType": "struct Lotto.GiveawayBase",
					"name": "base",
					"type": "tuple"
				},
				{
					"internalType": "address",
					"name": "owner",
					"type": "address"
				},
				{
					"internalType": "string",
					"name": "giveawayName",
					"type": "string"
				},
				{
					"components": [
						{
							"internalType": "uint256",
							"name": "requestId",
							"type": "uint256"
						},
						{
							"internalType": "bool",
							"name": "exists",
							"type": "bool"
						},
						{
							"internalType": "bool",
							"name": "fulfilled",
							"type": "bool"
						},
						{
							"internalType": "uint256[]",
							"name": "randomWords",
							"type": "uint256[]"
						},
						{
							"internalType": "uint32",
							"name": "nums",
							"type": "uint32"
						}
					],
					"internalType": "struct Lotto.RequestStatus",
					"name": "requestStatus",
					"type": "tuple"
				},
				{
					"internalType": "uint256",
					"name": "timeLength",
					"type": "uint256"
				},
				{
					"internalType": "enum Lotto.GiveawayState",
					"name": "giveawayState",
					"type": "uint8"
				},
				{
					"internalType": "uint256",
					"name": "maxParticipants",
					"type": "uint256"
				},
				{
					"internalType": "uint256",
					"name": "amount",
					"type": "uint256"
				}
			],
			"stateMutability": "view",
			"type": "function"
		},
		{
			"inputs": [],
			"name": "owner",
			"outputs": [
				{
					"internalType": "address",
					"name": "",
					"type": "address"
				}
			],
			"stateMutability": "view",
			"type": "function"
		},
		{
			"inputs": [
				{
					"internalType": "uint256",
					"name": "requestId",
					"type": "uint256"
				},
				{
					"internalType": "uint256[]",
					"name": "randomWords",
					"type": "uint256[]"
				}
			],
			"name": "rawFulfillRandomWords",
			"outputs": [],
			"stateMutability": "nonpayable",
			"type": "function"
		},
		{
			"inputs": [
				{
					"internalType": "uint256",
					"name": "",
					"type": "uint256"
				}
			],
			"name": "requestIdToGiveawayIndex",
			"outputs": [
				{
					"internalType": "uint256",
					"name": "",
					"type": "uint256"
				}
			],
			"stateMutability": "view",
			"type": "function"
		},
		{
			"inputs": [
				{
					"internalType": "uint256",
					"name": "giveawayId",
					"type": "uint256"
				}
			],
			"name": "resolveGiveaway",
			"outputs": [],
			"stateMutability": "nonpayable",
			"type": "function"
		},
		{
			"inputs": [
				{
					"internalType": "uint256",
					"name": "",
					"type": "uint256"
				}
			],
			"name": "s_requests",
			"outputs": [
				{
					"internalType": "uint256",
					"name": "requestId",
					"type": "uint256"
				},
				{
					"internalType": "bool",
					"name": "exists",
					"type": "bool"
				},
				{
					"internalType": "bool",
					"name": "fulfilled",
					"type": "bool"
				},
				{
					"internalType": "uint32",
					"name": "nums",
					"type": "uint32"
				}
			],
			"stateMutability": "view",
			"type": "function"
		},
		{
			"inputs": [
				{
					"internalType": "uint32",
					"name": "_callbackGasLimit",
					"type": "uint32"
				}
			],
			"name": "setCallbackGasLimit",
			"outputs": [],
			"stateMutability": "nonpayable",
			"type": "function"
		},
		{
			"inputs": [
				{
					"internalType": "uint16",
					"name": "_requestConfirmations",
					"type": "uint16"
				}
			],
			"name": "setRequestConfirmations",
			"outputs": [],
			"stateMutability": "nonpayable",
			"type": "function"
		},
		{
			"inputs": [
				{
					"internalType": "uint64",
					"name": "subscriptionId",
					"type": "uint64"
				}
			],
			"name": "setSubscriptionId",
			"outputs": [],
			"stateMutability": "nonpayable",
			"type": "function"
		},
		{
			"inputs": [
				{
					"internalType": "address",
					"name": "to",
					"type": "address"
				}
			],
			"name": "transferOwnership",
			"outputs": [],
			"stateMutability": "nonpayable",
			"type": "function"
		},
		{
			"inputs": [
				{
					"internalType": "uint256",
					"name": "amount",
					"type": "uint256"
				}
			],
			"name": "withdrawAll",
			"outputs": [],
			"stateMutability": "nonpayable",
			"type": "function"
		},
		{
			"stateMutability": "payable",
			"type": "receive"
		}
	],
	"bytecode": "0x60a06040527f354d2f95da55398f44b7cff77da56283d9c6c829a4bdf1bbcaf2ad6a4d081f6160001b600955620f4240600a60006101000a81548163ffffffff021916908363ffffffff1602179055506005600a60046101000a81548161ffff021916908361ffff1602179055503480156200007a57600080fd5b5060405162005dcc38038062005dcc8339818101604052810190620000a09190620003e8565b33806000732ed832ba664535e5886b75d64c46eb9a228c26108073ffffffffffffffffffffffffffffffffffffffff1660808173ffffffffffffffffffffffffffffffffffffffff168152505050600073ffffffffffffffffffffffffffffffffffffffff168273ffffffffffffffffffffffffffffffffffffffff160362000160576040517f08c379a000000000000000000000000000000000000000000000000000000000815260040162000157906200047b565b60405180910390fd5b816000806101000a81548173ffffffffffffffffffffffffffffffffffffffff021916908373ffffffffffffffffffffffffffffffffffffffff160217905550600073ffffffffffffffffffffffffffffffffffffffff168173ffffffffffffffffffffffffffffffffffffffff1614620001e757620001e6816200026f60201b60201c565b5b505050732ed832ba664535e5886b75d64c46eb9a228c2610600860006101000a81548173ffffffffffffffffffffffffffffffffffffffff021916908373ffffffffffffffffffffffffffffffffffffffff16021790555080600a60066101000a81548167ffffffffffffffff021916908367ffffffffffffffff160217905550506200050f565b3373ffffffffffffffffffffffffffffffffffffffff168173ffffffffffffffffffffffffffffffffffffffff1603620002e0576040517f08c379a0000000000000000000000000000000000000000000000000000000008152600401620002d790620004ed565b60405180910390fd5b80600160006101000a81548173ffffffffffffffffffffffffffffffffffffffff021916908373ffffffffffffffffffffffffffffffffffffffff1602179055508073ffffffffffffffffffffffffffffffffffffffff1660008054906101000a900473ffffffffffffffffffffffffffffffffffffffff1673ffffffffffffffffffffffffffffffffffffffff167fed8889f560326eb138920d842192f0eb3dd22b4f139c87a2c57538e05bae127860405160405180910390a350565b600080fd5b600067ffffffffffffffff82169050919050565b620003c281620003a3565b8114620003ce57600080fd5b50565b600081519050620003e281620003b7565b92915050565b6000602082840312156200040157620004006200039e565b5b60006200041184828501620003d1565b91505092915050565b600082825260208201905092915050565b7f43616e6e6f7420736574206f776e657220746f207a65726f0000000000000000600082015250565b6000620004636018836200041a565b915062000470826200042b565b602082019050919050565b60006020820190508181036000830152620004968162000454565b9050919050565b7f43616e6e6f74207472616e7366657220746f2073656c66000000000000000000600082015250565b6000620004d56017836200041a565b9150620004e2826200049d565b602082019050919050565b600060208201905081810360008301526200050881620004c6565b9050919050565b60805161589a6200053260003960008181610e920152610ee6015261589a6000f3fe6080604052600436106101c65760003560e01c80638da5cb5b116100f7578063cb3bd80e11610095578063e76e175d11610064578063e76e175d1461068f578063ea7b4f77146106cc578063f227d93e146106f5578063f2fde38b14610732576101cd565b8063cb3bd80e146105d4578063d7098154146105fd578063d8a4676f14610626578063dd8b006c14610664576101cd565b8063a4eb718c116100d1578063a4eb718c14610526578063b03f0f6b1461054f578063b5a76f1d1461057a578063c593a411146105ab576101cd565b80638da5cb5b14610492578063958e2d31146104bd578063a168fa89146104e6576101cd565b8063509766c8116101645780637b007b411161013e5780637b007b41146103b25780637b044819146103ef57806383e3839d1461042c5780638824f5a714610469576101cd565b8063509766c81461033357806371f71a141461035e57806379ba50971461039b576101cd565b80631d5e9609116101a05780631d5e96091461025e5780631fe543e3146102895780633e06df3d146102b25780634b633b43146102f6576101cd565b806301a7680a146101cf5780631678a2eb146101f8578063193f453e14610235576101cd565b366101cd57005b005b3480156101db57600080fd5b506101f660048036038101906101f191906139f5565b61075b565b005b34801561020457600080fd5b5061021f600480360381019061021a91906139f5565b610baa565b60405161022c9190613b12565b60405180910390f35b34801561024157600080fd5b5061025c600480360381019061025791906139f5565b610c4e565b005b34801561026a57600080fd5b50610273610e84565b6040516102809190613b43565b60405180910390f35b34801561029557600080fd5b506102b060048036038101906102ab9190613cb7565b610e90565b005b3480156102be57600080fd5b506102d960048036038101906102d491906139f5565b610f50565b6040516102ed989796959493929190613fe4565b60405180910390f35b34801561030257600080fd5b5061031d600480360381019061031891906139f5565b611150565b60405161032a9190613b43565b60405180910390f35b34801561033f57600080fd5b50610348611168565b60405161035591906140e1565b60405180910390f35b34801561036a57600080fd5b50610385600480360381019061038091906139f5565b611222565b6040516103929190614103565b60405180910390f35b3480156103a757600080fd5b506103b061124f565b005b3480156103be57600080fd5b506103d960048036038101906103d491906139f5565b6113e4565b6040516103e69190613b12565b60405180910390f35b3480156103fb57600080fd5b50610416600480360381019061041191906139f5565b611488565b604051610423919061411e565b60405180910390f35b34801561043857600080fd5b50610453600480360381019061044e91906139f5565b611576565b6040516104609190613b12565b60405180910390f35b34801561047557600080fd5b50610490600480360381019061048b919061417a565b61161a565b005b34801561049e57600080fd5b506104a7611642565b6040516104b491906141a7565b60405180910390f35b3480156104c957600080fd5b506104e460048036038101906104df91906139f5565b61166b565b005b3480156104f257600080fd5b5061050d600480360381019061050891906139f5565b611726565b60405161051d94939291906141e0565b60405180910390f35b34801561053257600080fd5b5061054d60048036038101906105489190614251565b611780565b005b34801561055b57600080fd5b506105646117ac565b60405161057191906140e1565b60405180910390f35b610594600480360381019061058f919061438b565b6118c7565b6040516105a2929190614422565b60405180910390f35b3480156105b757600080fd5b506105d260048036038101906105cd91906139f5565b611e75565b005b3480156105e057600080fd5b506105fb60048036038101906105f691906139f5565b6120fa565b005b34801561060957600080fd5b50610624600480360381019061061f91906139f5565b612298565b005b34801561063257600080fd5b5061064d600480360381019061064891906139f5565b612853565b60405161065b92919061444b565b60405180910390f35b34801561067057600080fd5b506106796129ae565b60405161068691906140e1565b60405180910390f35b34801561069b57600080fd5b506106b660048036038101906106b1919061447b565b612ac8565b6040516106c391906140e1565b60405180910390f35b3480156106d857600080fd5b506106f360048036038101906106ee91906144e8565b612beb565b005b34801561070157600080fd5b5061071c600480360381019061071791906139f5565b612c1f565b60405161072991906147a2565b60405180910390f35b34801561073e57600080fd5b506107596004803603810190610754919061447b565b61304f565b005b803373ffffffffffffffffffffffffffffffffffffffff166005600083815260200190815260200160002060030160009054906101000a900473ffffffffffffffffffffffffffffffffffffffff1673ffffffffffffffffffffffffffffffffffffffff16146107ca57600080fd5b600160028111156107de576107dd613f6d565b5b60056000848152602001908152602001600020600c0160009054906101000a900460ff16600281111561081457610813613f6d565b5b14610854576040517f08c379a000000000000000000000000000000000000000000000000000000000815260040161084b90614810565b60405180910390fd5b60056000838152602001908152602001600020600b0154600560008481526020019081526020016000206000016001015461088f919061485f565b42116108d0576040517f08c379a00000000000000000000000000000000000000000000000000000000081526004016108c7906148df565b60405180910390fd5b6005600083815260200190815260200160002060070160010160019054906101000a900460ff16610936576040517f08c379a000000000000000000000000000000000000000000000000000000000815260040161092d90614971565b60405180910390fd5b6109c06005600084815260200190815260200160002060070160020180548060200260200160405190810160405280929190818152602001828054801561099c57602002820191906000526020600020905b815481526020019060010190808311610988575b50505050506005600085815260200190815260200160002060060180549050613063565b6005600084815260200190815260200160002060070160020190805190602001906109ec9291906137cc565b5060005b6005600084815260200190815260200160002060070160030160009054906101000a900463ffffffff1663ffffffff16811015610b38576005600084815260200190815260200160002060050160056000858152602001908152602001600020600601600560008681526020019081526020016000206007016002018381548110610a7e57610a7d614991565b5b906000526020600020015481548110610a9a57610a99614991565b5b9060005260206000200160009054906101000a900473ffffffffffffffffffffffffffffffffffffffff169080600181540180825580915050600190039060005260206000200160009091909190916101000a81548173ffffffffffffffffffffffffffffffffffffffff021916908373ffffffffffffffffffffffffffffffffffffffff1602179055508080610b30906149c0565b9150506109f0565b50610b4d8260036130d390919063ffffffff16565b5060056000838152602001908152602001600020600501604051610b719190614b26565b6040518091039020827f71a9661e39dc75e49f243d82bfee11088075a513da52999db039bb5a22dcc0c260405160405180910390a35050565b606060056000838152602001908152602001600020600501805480602002602001604051908101604052809291908181526020018280548015610c4257602002820191906000526020600020905b8160009054906101000a900473ffffffffffffffffffffffffffffffffffffffff1673ffffffffffffffffffffffffffffffffffffffff1681526020019060010190808311610bf8575b50505050509050919050565b60006002811115610c6257610c61613f6d565b5b60056000838152602001908152602001600020600c0160009054906101000a900460ff166002811115610c9857610c97613f6d565b5b14610cd8576040517f08c379a0000000000000000000000000000000000000000000000000000000008152600401610ccf90614b89565b60405180910390fd5b60056000828152602001908152602001600020600b01546005600083815260200190815260200160002060000160010154610d13919061485f565b421115610d55576040517f08c379a0000000000000000000000000000000000000000000000000000000008152600401610d4c90614bf5565b60405180910390fd5b60056000828152602001908152602001600020600d0154600560008381526020019081526020016000206006018054905010610dc6576040517f08c379a0000000000000000000000000000000000000000000000000000000008152600401610dbd90614c61565b60405180910390fd5b60056000828152602001908152602001600020600601339080600181540180825580915050600190039060005260206000200160009091909190916101000a81548173ffffffffffffffffffffffffffffffffffffffff021916908373ffffffffffffffffffffffffffffffffffffffff1602179055503373ffffffffffffffffffffffffffffffffffffffff16817f5608eae838db54615dfdd241f486f8191afd2109e4b0c4225dd0643151ae824b60405160405180910390a350565b60028060000154905081565b7f000000000000000000000000000000000000000000000000000000000000000073ffffffffffffffffffffffffffffffffffffffff163373ffffffffffffffffffffffffffffffffffffffff1614610f4257337f00000000000000000000000000000000000000000000000000000000000000006040517f1cf993f4000000000000000000000000000000000000000000000000000000008152600401610f39929190614c81565b60405180910390fd5b610f4c82826130ed565b5050565b60056020528060005260406000206000915090508060000160405180606001604052908160008201548152602001600182015481526020016002820160009054906101000a900460ff1660ff1660ff1681525050908060030160009054906101000a900473ffffffffffffffffffffffffffffffffffffffff1690806004018054610fda90614cd9565b80601f016020809104026020016040519081016040528092919081815260200182805461100690614cd9565b80156110535780601f1061102857610100808354040283529160200191611053565b820191906000526020600020905b81548152906001019060200180831161103657829003601f168201915b505050505090806007016040518060a0016040529081600082015481526020016001820160009054906101000a900460ff161515151581526020016001820160019054906101000a900460ff16151515158152602001600282018054806020026020016040519081016040528092919081815260200182805480156110f757602002820191906000526020600020905b8154815260200190600101908083116110e3575b505050505081526020016003820160009054906101000a900463ffffffff1663ffffffff1663ffffffff16815250509080600b01549080600c0160009054906101000a900460ff169080600d01549080600e0154905088565b60066020528060005260406000206000915090505481565b6060600061117660036131ae565b67ffffffffffffffff81111561118f5761118e613b74565b5b6040519080825280602002602001820160405280156111bd5781602001602082028036833780820191505090505b50905060005b6111cd60036131ae565b81101561121a576111e88160036131c390919063ffffffff16565b8282815181106111fb576111fa614991565b5b6020026020010181815250508080611212906149c0565b9150506111c3565b508091505090565b600060056000838152602001908152602001600020600c0160009054906101000a900460ff169050919050565b600160009054906101000a900473ffffffffffffffffffffffffffffffffffffffff1673ffffffffffffffffffffffffffffffffffffffff163373ffffffffffffffffffffffffffffffffffffffff16146112df576040517f08c379a00000000000000000000000000000000000000000000000000000000081526004016112d690614d56565b60405180910390fd5b60008060009054906101000a900473ffffffffffffffffffffffffffffffffffffffff169050336000806101000a81548173ffffffffffffffffffffffffffffffffffffffff021916908373ffffffffffffffffffffffffffffffffffffffff1602179055506000600160006101000a81548173ffffffffffffffffffffffffffffffffffffffff021916908373ffffffffffffffffffffffffffffffffffffffff1602179055503373ffffffffffffffffffffffffffffffffffffffff168173ffffffffffffffffffffffffffffffffffffffff167f8be0079c531659141344cd1fd0a4f28419497f9722a3daafe3b4186f6b6457e060405160405180910390a350565b606060056000838152602001908152602001600020600f0180548060200260200160405190810160405280929190818152602001828054801561147c57602002820191906000526020600020905b8160009054906101000a900473ffffffffffffffffffffffffffffffffffffffff1673ffffffffffffffffffffffffffffffffffffffff1681526020019060010190808311611432575b50505050509050919050565b611490613819565b600560008381526020019081526020016000206007016040518060a0016040529081600082015481526020016001820160009054906101000a900460ff161515151581526020016001820160019054906101000a900460ff161515151581526020016002820180548060200260200160405190810160405280929190818152602001828054801561154057602002820191906000526020600020905b81548152602001906001019080831161152c575b505050505081526020016003820160009054906101000a900463ffffffff1663ffffffff1663ffffffff16815250509050919050565b60606005600083815260200190815260200160002060060180548060200260200160405190810160405280929190818152602001828054801561160e57602002820191906000526020600020905b8160009054906101000a900473ffffffffffffffffffffffffffffffffffffffff1673ffffffffffffffffffffffffffffffffffffffff16815260200190600101908083116115c4575b50505050509050919050565b6116226131dd565b80600a60046101000a81548161ffff021916908361ffff16021790555050565b60008060009054906101000a900473ffffffffffffffffffffffffffffffffffffffff16905090565b6116736131dd565b6000803373ffffffffffffffffffffffffffffffffffffffff168360405161169a90614da7565b60006040518083038185875af1925050503d80600081146116d7576040519150601f19603f3d011682016040523d82523d6000602084013e6116dc565b606091505b509150915081611721576040517f08c379a000000000000000000000000000000000000000000000000000000000815260040161171890614e08565b60405180910390fd5b505050565b60076020528060005260406000206000915090508060000154908060010160009054906101000a900460ff16908060010160019054906101000a900460ff16908060030160009054906101000a900463ffffffff16905084565b6117886131dd565b80600a60006101000a81548163ffffffff021916908363ffffffff16021790555050565b606060006117ba60036131ae565b6117c4600261326d565b6117ce9190614e28565b67ffffffffffffffff8111156117e7576117e6613b74565b5b6040519080825280602002602001820160405280156118155781602001602082028036833780820191505090505b5090506000805b611826600261326d565b8110156118be576001600281111561184157611840613f6d565b5b60056000838152602001908152602001600020600c0160009054906101000a900460ff16600281111561187757611876613f6d565b5b036118ab57808383815181106118905761188f614991565b5b60200260200101818152505081806118a7906149c0565b9250505b80806118b6906149c0565b91505061181c565b50819250505090565b600080600a8460ff161115611911576040517f08c379a000000000000000000000000000000000000000000000000000000000815260040161190890614ece565b60405180910390fd5b6000803073ffffffffffffffffffffffffffffffffffffffff163460405161193890614f3a565b60006040518083038185875af1925050503d8060008114611975576040519150601f19603f3d011682016040523d82523d6000602084013e61197a565b606091505b5091509150816119bf576040517f08c379a00000000000000000000000000000000000000000000000000000000081526004016119b690614f9b565b60405180910390fd5b600060405180610160016040528060405180606001604052806119e2600261326d565b81526020014281526020018a60ff1681525081526020018b73ffffffffffffffffffffffffffffffffffffffff168152602001898152602001600067ffffffffffffffff811115611a3657611a35613b74565b5b604051908082528060200260200182016040528015611a645781602001602082028036833780820191505090505b508152602001600067ffffffffffffffff811115611a8557611a84613b74565b5b604051908082528060200260200182016040528015611ab35781602001602082028036833780820191505090505b5081526020016040518060a0016040528060008152602001600115158152602001600015158152602001600067ffffffffffffffff811115611af857611af7613b74565b5b604051908082528060200260200182016040528015611b265781602001602082028036833780820191505090505b5081526020018a60ff1663ffffffff1681525081526020018a815260200160006002811115611b5857611b57613f6d565b5b8152602001878152602001348152602001600067ffffffffffffffff811115611b8457611b83613b74565b5b604051908082528060200260200182016040528015611bb25781602001602082028036833780820191505090505b5081525090508060056000611bc7600261326d565b8152602001908152602001600020600082015181600001600082015181600001556020820151816001015560408201518160020160006101000a81548160ff021916908360ff160217905550505060208201518160030160006101000a81548173ffffffffffffffffffffffffffffffffffffffff021916908373ffffffffffffffffffffffffffffffffffffffff1602179055506040820151816004019081611c719190615167565b506060820151816005019080519060200190611c8e929190613852565b506080820151816006019080519060200190611cab929190613852565b5060a0820151816007016000820151816000015560208201518160010160006101000a81548160ff02191690831515021790555060408201518160010160016101000a81548160ff0219169083151502179055506060820151816002019080519060200190611d1b9291906137cc565b5060808201518160030160006101000a81548163ffffffff021916908363ffffffff160217905550505060c082015181600b015560e082015181600c0160006101000a81548160ff02191690836002811115611d7a57611d79613f6d565b5b021790555061010082015181600d015561012082015181600e015561014082015181600f019080519060200190611db2929190613852565b50905050611dd3611dc3600261326d565b600361327b90919063ffffffff16565b50611dde6002613295565b888a73ffffffffffffffffffffffffffffffffffffffff167f6d153db6b9cfc7ac02cddd5fdff909975ac6f8b741dd5c4a11e9f3c3b539151e346001611e24600261326d565b611e2e9190614e28565b428d8c8e604051611e4496959493929190615248565b60405180910390a36001611e58600261326d565b611e629190614e28565b6001945094505050509550959350505050565b803373ffffffffffffffffffffffffffffffffffffffff166005600083815260200190815260200160002060030160009054906101000a900473ffffffffffffffffffffffffffffffffffffffff1673ffffffffffffffffffffffffffffffffffffffff1614611ee457600080fd5b60006002811115611ef857611ef7613f6d565b5b60056000848152602001908152602001600020600c0160009054906101000a900460ff166002811115611f2e57611f2d613f6d565b5b14611f6e576040517f08c379a0000000000000000000000000000000000000000000000000000000008152600401611f6590614b89565b60405180910390fd5b60056000838152602001908152602001600020600b01546005600084815260200190815260200160002060000160010154611fa9919061485f565b4211611fea576040517f08c379a0000000000000000000000000000000000000000000000000000000008152600401611fe1906148df565b60405180910390fd5b600160056000848152602001908152602001600020600c0160006101000a81548160ff0219169083600281111561202457612023613f6d565b5b021790555061205b6005600084815260200190815260200160002060070160030160009054906101000a900463ffffffff166132b4565b600560008481526020019081526020016000206007016000018190555081600660006005600086815260200190815260200160002060070160000154815260200190815260200160002081905550817f1fe8e430555d16343d2318fc70f9ff393789c2d88425c2497155950619429200600560008581526020019081526020016000206006016040516120ee9190615315565b60405180910390a25050565b803373ffffffffffffffffffffffffffffffffffffffff166005600083815260200190815260200160002060030160009054906101000a900473ffffffffffffffffffffffffffffffffffffffff1673ffffffffffffffffffffffffffffffffffffffff161461216957600080fd5b6000600281111561217d5761217c613f6d565b5b60056000848152602001908152602001600020600c0160009054906101000a900460ff1660028111156121b3576121b2613f6d565b5b146121f3576040517f08c379a00000000000000000000000000000000000000000000000000000000081526004016121ea90614b89565b60405180910390fd5b600260056000848152602001908152602001600020600c0160006101000a81548160ff0219169083600281111561222d5761222c613f6d565b5b02179055506122468260036130d390919063ffffffff16565b50817f1fe8e430555d16343d2318fc70f9ff393789c2d88425c24971559506194292006005600085815260200190815260200160002060060160405161228c9190615315565b60405180910390a25050565b600160028111156122ac576122ab613f6d565b5b60056000838152602001908152602001600020600c0160009054906101000a900460ff1660028111156122e2576122e1613f6d565b5b14612322576040517f08c379a000000000000000000000000000000000000000000000000000000000815260040161231990614810565b60405180910390fd5b60056000828152602001908152602001600020600b0154600560008381526020019081526020016000206000016001015461235d919061485f565b421161239e576040517f08c379a0000000000000000000000000000000000000000000000000000000008152600401612395906148df565b60405180910390fd5b6005600082815260200190815260200160002060070160010160019054906101000a900460ff16612404576040517f08c379a00000000000000000000000000000000000000000000000000000000081526004016123fb90615383565b60405180910390fd5b6000600560008381526020019081526020016000206005018054905011612460576040517f08c379a0000000000000000000000000000000000000000000000000000000008152600401612457906153ef565b60405180910390fd5b60005b60056000838152602001908152602001600020600f0180549050811015612557573373ffffffffffffffffffffffffffffffffffffffff1660056000848152602001908152602001600020600f0182815481106124c3576124c2614991565b5b9060005260206000200160009054906101000a900473ffffffffffffffffffffffffffffffffffffffff1673ffffffffffffffffffffffffffffffffffffffff1603612544576040517f08c379a000000000000000000000000000000000000000000000000000000000815260040161253b90615481565b60405180910390fd5b808061254f906149c0565b915050612463565b506000805b600560008481526020019081526020016000206005018054905081101561261e573373ffffffffffffffffffffffffffffffffffffffff166005600085815260200190815260200160002060050182815481106125bc576125bb614991565b5b9060005260206000200160009054906101000a900473ffffffffffffffffffffffffffffffffffffffff1673ffffffffffffffffffffffffffffffffffffffff160361260b576001915061261e565b8080612616906149c0565b91505061255c565b508061265f576040517f08c379a000000000000000000000000000000000000000000000000000000000815260040161265690615513565b60405180910390fd5b6000600560008481526020019081526020016000206005018054905060056000858152602001908152602001600020600e015461269c9190615562565b90506000803373ffffffffffffffffffffffffffffffffffffffff16836040516126c5906155df565b60006040518083038185875af1925050503d8060008114612702576040519150601f19603f3d011682016040523d82523d6000602084013e612707565b606091505b50915091508161274c576040517f08c379a000000000000000000000000000000000000000000000000000000000815260040161274390614f9b565b60405180910390fd5b60056000868152602001908152602001600020600f01339080600181540180825580915050600190039060005260206000200160009091909190916101000a81548173ffffffffffffffffffffffffffffffffffffffff021916908373ffffffffffffffffffffffffffffffffffffffff1602179055503373ffffffffffffffffffffffffffffffffffffffff16857f3899e7dfba1f70f3c5916f454e27e7a79f411b2c5683942cd766f5857c6b0a596005600089815260200190815260200160002060050180549050600560008a8152602001908152602001600020600e01546128379190615562565b6040516128449190613b43565b60405180910390a35050505050565b600060606007600084815260200190815260200160002060010160009054906101000a900460ff166128ba576040517f08c379a00000000000000000000000000000000000000000000000000000000081526004016128b190615640565b60405180910390fd5b6000600760008581526020019081526020016000206040518060a0016040529081600082015481526020016001820160009054906101000a900460ff161515151581526020016001820160019054906101000a900460ff161515151581526020016002820180548060200260200160405190810160405280929190818152602001828054801561296957602002820191906000526020600020905b815481526020019060010190808311612955575b505050505081526020016003820160009054906101000a900463ffffffff1663ffffffff1663ffffffff16815250509050806040015181606001519250925050915091565b606060006129bc60036131ae565b6129c6600261326d565b6129d09190614e28565b67ffffffffffffffff8111156129e9576129e8613b74565b5b604051908082528060200260200182016040528015612a175781602001602082028036833780820191505090505b5090506000805b612a28600261326d565b811015612abf57600280811115612a4257612a41613f6d565b5b60056000838152602001908152602001600020600c0160009054906101000a900460ff166002811115612a7857612a77613f6d565b5b03612aac5780838381518110612a9157612a90614991565b5b6020026020010181815250508180612aa8906149c0565b9250505b8080612ab7906149c0565b915050612a1e565b50819250505090565b60606000612ad6600261326d565b67ffffffffffffffff811115612aef57612aee613b74565b5b604051908082528060200260200182016040528015612b1d5781602001602082028036833780820191505090505b5090506000805b612b2e600261326d565b811015612be0578473ffffffffffffffffffffffffffffffffffffffff166005600083815260200190815260200160002060030160009054906101000a900473ffffffffffffffffffffffffffffffffffffffff1673ffffffffffffffffffffffffffffffffffffffff1603612bcd5780838381518110612bb257612bb1614991565b5b6020026020010181815250508180612bc9906149c0565b9250505b8080612bd8906149c0565b915050612b24565b508192505050919050565b612bf36131dd565b80600a60066101000a81548167ffffffffffffffff021916908367ffffffffffffffff16021790555050565b612c276138dc565b60056000838152602001908152602001600020604051806101600160405290816000820160405180606001604052908160008201548152602001600182015481526020016002820160009054906101000a900460ff1660ff1660ff168152505081526020016003820160009054906101000a900473ffffffffffffffffffffffffffffffffffffffff1673ffffffffffffffffffffffffffffffffffffffff1673ffffffffffffffffffffffffffffffffffffffff168152602001600482018054612cf190614cd9565b80601f0160208091040260200160405190810160405280929190818152602001828054612d1d90614cd9565b8015612d6a5780601f10612d3f57610100808354040283529160200191612d6a565b820191906000526020600020905b815481529060010190602001808311612d4d57829003601f168201915b5050505050815260200160058201805480602002602001604051908101604052809291908181526020018280548015612df857602002820191906000526020600020905b8160009054906101000a900473ffffffffffffffffffffffffffffffffffffffff1673ffffffffffffffffffffffffffffffffffffffff1681526020019060010190808311612dae575b5050505050815260200160068201805480602002602001604051908101604052809291908181526020018280548015612e8657602002820191906000526020600020905b8160009054906101000a900473ffffffffffffffffffffffffffffffffffffffff1673ffffffffffffffffffffffffffffffffffffffff1681526020019060010190808311612e3c575b50505050508152602001600782016040518060a0016040529081600082015481526020016001820160009054906101000a900460ff161515151581526020016001820160019054906101000a900460ff1615151515815260200160028201805480602002602001604051908101604052809291908181526020018280548015612f2e57602002820191906000526020600020905b815481526020019060010190808311612f1a575b505050505081526020016003820160009054906101000a900463ffffffff1663ffffffff1663ffffffff16815250508152602001600b8201548152602001600c820160009054906101000a900460ff166002811115612f9057612f8f613f6d565b5b6002811115612fa257612fa1613f6d565b5b8152602001600d8201548152602001600e8201548152602001600f820180548060200260200160405190810160405280929190818152602001828054801561303f57602002820191906000526020600020905b8160009054906101000a900473ffffffffffffffffffffffffffffffffffffffff1673ffffffffffffffffffffffffffffffffffffffff1681526020019060010190808311612ff5575b5050505050815250509050919050565b6130576131dd565b613060816134bd565b50565b606060005b83518110156130c9578284828151811061308557613084614991565b5b60200260200101516130979190615660565b8482815181106130aa576130a9614991565b5b60200260200101818152505080806130c1906149c0565b915050613068565b5082905092915050565b60006130e5836000018360001b6135e9565b905092915050565b6007600083815260200190815260200160002060010160009054906101000a900460ff16613150576040517f08c379a000000000000000000000000000000000000000000000000000000000815260040161314790615640565b60405180910390fd5b60016007600084815260200190815260200160002060010160016101000a81548160ff021916908315150217905550806007600084815260200190815260200160002060020190805190602001906131a99291906137cc565b505050565b60006131bc826000016136fd565b9050919050565b60006131d2836000018361370e565b60001c905092915050565b60008054906101000a900473ffffffffffffffffffffffffffffffffffffffff1673ffffffffffffffffffffffffffffffffffffffff163373ffffffffffffffffffffffffffffffffffffffff161461326b576040517f08c379a0000000000000000000000000000000000000000000000000000000008152600401613262906156dd565b60405180910390fd5b565b600081600001549050919050565b600061328d836000018360001b613739565b905092915050565b60018160000160008282546132aa919061485f565b9250508190555050565b6000600860009054906101000a900473ffffffffffffffffffffffffffffffffffffffff1673ffffffffffffffffffffffffffffffffffffffff16635d3b1d30600954600a60069054906101000a900467ffffffffffffffff16600a60049054906101000a900461ffff16600a60009054906101000a900463ffffffff16876040518663ffffffff1660e01b8152600401613353959493929190615734565b6020604051808303816000875af1158015613372573d6000803e3d6000fd5b505050506040513d601f19601f82011682018060405250810190613396919061579c565b90506040518060a00160405280828152602001600115158152602001600015158152602001600067ffffffffffffffff8111156133d6576133d5613b74565b5b6040519080825280602002602001820160405280156134045781602001602082028036833780820191505090505b5081526020018363ffffffff16815250600760008381526020019081526020016000206000820151816000015560208201518160010160006101000a81548160ff02191690831515021790555060408201518160010160016101000a81548160ff021916908315150217905550606082015181600201908051906020019061348d9291906137cc565b5060808201518160030160006101000a81548163ffffffff021916908363ffffffff160217905550905050919050565b3373ffffffffffffffffffffffffffffffffffffffff168173ffffffffffffffffffffffffffffffffffffffff160361352b576040517f08c379a000000000000000000000000000000000000000000000000000000000815260040161352290615815565b60405180910390fd5b80600160006101000a81548173ffffffffffffffffffffffffffffffffffffffff021916908373ffffffffffffffffffffffffffffffffffffffff1602179055508073ffffffffffffffffffffffffffffffffffffffff1660008054906101000a900473ffffffffffffffffffffffffffffffffffffffff1673ffffffffffffffffffffffffffffffffffffffff167fed8889f560326eb138920d842192f0eb3dd22b4f139c87a2c57538e05bae127860405160405180910390a350565b600080836001016000848152602001908152602001600020549050600081146136f157600060018261361b9190614e28565b90506000600186600001805490506136339190614e28565b90508082146136a257600086600001828154811061365457613653614991565b5b906000526020600020015490508087600001848154811061367857613677614991565b5b90600052602060002001819055508387600101600083815260200190815260200160002081905550505b856000018054806136b6576136b5615835565b5b6001900381819060005260206000200160009055905585600101600086815260200190815260200160002060009055600193505050506136f7565b60009150505b92915050565b600081600001805490509050919050565b600082600001828154811061372657613725614991565b5b9060005260206000200154905092915050565b600061374583836137a9565b61379e5782600001829080600181540180825580915050600190039060005260206000200160009091909190915055826000018054905083600101600084815260200190815260200160002081905550600190506137a3565b600090505b92915050565b600080836001016000848152602001908152602001600020541415905092915050565b828054828255906000526020600020908101928215613808579160200282015b828111156138075782518255916020019190600101906137ec565b5b509050613815919061396a565b5090565b6040518060a001604052806000815260200160001515815260200160001515815260200160608152602001600063ffffffff1681525090565b8280548282559060005260206000209081019282156138cb579160200282015b828111156138ca5782518260006101000a81548173ffffffffffffffffffffffffffffffffffffffff021916908373ffffffffffffffffffffffffffffffffffffffff16021790555091602001919060010190613872565b5b5090506138d8919061396a565b5090565b6040518061016001604052806138f0613987565b8152602001600073ffffffffffffffffffffffffffffffffffffffff16815260200160608152602001606081526020016060815260200161392f613819565b8152602001600081526020016000600281111561394f5761394e613f6d565b5b81526020016000815260200160008152602001606081525090565b5b8082111561398357600081600090555060010161396b565b5090565b60405180606001604052806000815260200160008152602001600060ff1681525090565b6000604051905090565b600080fd5b600080fd5b6000819050919050565b6139d2816139bf565b81146139dd57600080fd5b50565b6000813590506139ef816139c9565b92915050565b600060208284031215613a0b57613a0a6139b5565b5b6000613a19848285016139e0565b91505092915050565b600081519050919050565b600082825260208201905092915050565b6000819050602082019050919050565b600073ffffffffffffffffffffffffffffffffffffffff82169050919050565b6000613a7982613a4e565b9050919050565b613a8981613a6e565b82525050565b6000613a9b8383613a80565b60208301905092915050565b6000602082019050919050565b6000613abf82613a22565b613ac98185613a2d565b9350613ad483613a3e565b8060005b83811015613b05578151613aec8882613a8f565b9750613af783613aa7565b925050600181019050613ad8565b5085935050505092915050565b60006020820190508181036000830152613b2c8184613ab4565b905092915050565b613b3d816139bf565b82525050565b6000602082019050613b586000830184613b34565b92915050565b600080fd5b6000601f19601f8301169050919050565b7f4e487b7100000000000000000000000000000000000000000000000000000000600052604160045260246000fd5b613bac82613b63565b810181811067ffffffffffffffff82111715613bcb57613bca613b74565b5b80604052505050565b6000613bde6139ab565b9050613bea8282613ba3565b919050565b600067ffffffffffffffff821115613c0a57613c09613b74565b5b602082029050602081019050919050565b600080fd5b6000613c33613c2e84613bef565b613bd4565b90508083825260208201905060208402830185811115613c5657613c55613c1b565b5b835b81811015613c7f5780613c6b88826139e0565b845260208401935050602081019050613c58565b5050509392505050565b600082601f830112613c9e57613c9d613b5e565b5b8135613cae848260208601613c20565b91505092915050565b60008060408385031215613cce57613ccd6139b5565b5b6000613cdc858286016139e0565b925050602083013567ffffffffffffffff811115613cfd57613cfc6139ba565b5b613d0985828601613c89565b9150509250929050565b613d1c816139bf565b82525050565b600060ff82169050919050565b613d3881613d22565b82525050565b606082016000820151613d546000850182613d13565b506020820151613d676020850182613d13565b506040820151613d7a6040850182613d2f565b50505050565b613d8981613a6e565b82525050565b600081519050919050565b600082825260208201905092915050565b60005b83811015613dc9578082015181840152602081019050613dae565b60008484015250505050565b6000613de082613d8f565b613dea8185613d9a565b9350613dfa818560208601613dab565b613e0381613b63565b840191505092915050565b60008115159050919050565b613e2381613e0e565b82525050565b600081519050919050565b600082825260208201905092915050565b6000819050602082019050919050565b6000613e618383613d13565b60208301905092915050565b6000602082019050919050565b6000613e8582613e29565b613e8f8185613e34565b9350613e9a83613e45565b8060005b83811015613ecb578151613eb28882613e55565b9750613ebd83613e6d565b925050600181019050613e9e565b5085935050505092915050565b600063ffffffff82169050919050565b613ef181613ed8565b82525050565b600060a083016000830151613f0f6000860182613d13565b506020830151613f226020860182613e1a565b506040830151613f356040860182613e1a565b5060608301518482036060860152613f4d8282613e7a565b9150506080830151613f626080860182613ee8565b508091505092915050565b7f4e487b7100000000000000000000000000000000000000000000000000000000600052602160045260246000fd5b60038110613fad57613fac613f6d565b5b50565b6000819050613fbe82613f9c565b919050565b6000613fce82613fb0565b9050919050565b613fde81613fc3565b82525050565b600061014082019050613ffa600083018b613d3e565b614007606083018a613d80565b81810360808301526140198189613dd5565b905081810360a083015261402d8188613ef7565b905061403c60c0830187613b34565b61404960e0830186613fd5565b614057610100830185613b34565b614065610120830184613b34565b9998505050505050505050565b600082825260208201905092915050565b600061408e82613e29565b6140988185614072565b93506140a383613e45565b8060005b838110156140d45781516140bb8882613e55565b97506140c683613e6d565b9250506001810190506140a7565b5085935050505092915050565b600060208201905081810360008301526140fb8184614083565b905092915050565b60006020820190506141186000830184613fd5565b92915050565b600060208201905081810360008301526141388184613ef7565b905092915050565b600061ffff82169050919050565b61415781614140565b811461416257600080fd5b50565b6000813590506141748161414e565b92915050565b6000602082840312156141905761418f6139b5565b5b600061419e84828501614165565b91505092915050565b60006020820190506141bc6000830184613d80565b92915050565b6141cb81613e0e565b82525050565b6141da81613ed8565b82525050565b60006080820190506141f56000830187613b34565b61420260208301866141c2565b61420f60408301856141c2565b61421c60608301846141d1565b95945050505050565b61422e81613ed8565b811461423957600080fd5b50565b60008135905061424b81614225565b92915050565b600060208284031215614267576142666139b5565b5b60006142758482850161423c565b91505092915050565b61428781613a6e565b811461429257600080fd5b50565b6000813590506142a48161427e565b92915050565b600080fd5b600067ffffffffffffffff8211156142ca576142c9613b74565b5b6142d382613b63565b9050602081019050919050565b82818337600083830152505050565b60006143026142fd846142af565b613bd4565b90508281526020810184848401111561431e5761431d6142aa565b5b6143298482856142e0565b509392505050565b600082601f83011261434657614345613b5e565b5b81356143568482602086016142ef565b91505092915050565b61436881613d22565b811461437357600080fd5b50565b6000813590506143858161435f565b92915050565b600080600080600060a086880312156143a7576143a66139b5565b5b60006143b588828901614295565b95505060206143c6888289016139e0565b945050604086013567ffffffffffffffff8111156143e7576143e66139ba565b5b6143f388828901614331565b935050606061440488828901614376565b9250506080614415888289016139e0565b9150509295509295909350565b60006040820190506144376000830185613b34565b61444460208301846141c2565b9392505050565b600060408201905061446060008301856141c2565b81810360208301526144728184614083565b90509392505050565b600060208284031215614491576144906139b5565b5b600061449f84828501614295565b91505092915050565b600067ffffffffffffffff82169050919050565b6144c5816144a8565b81146144d057600080fd5b50565b6000813590506144e2816144bc565b92915050565b6000602082840312156144fe576144fd6139b5565b5b600061450c848285016144d3565b91505092915050565b60608201600082015161452b6000850182613d13565b50602082015161453e6020850182613d13565b5060408201516145516040850182613d2f565b50505050565b600082825260208201905092915050565b600061457382613d8f565b61457d8185614557565b935061458d818560208601613dab565b61459681613b63565b840191505092915050565b600082825260208201905092915050565b60006145bd82613a22565b6145c781856145a1565b93506145d283613a3e565b8060005b838110156146035781516145ea8882613a8f565b97506145f583613aa7565b9250506001810190506145d6565b5085935050505092915050565b600060a0830160008301516146286000860182613d13565b50602083015161463b6020860182613e1a565b50604083015161464e6040860182613e1a565b50606083015184820360608601526146668282613e7a565b915050608083015161467b6080860182613ee8565b508091505092915050565b61468f81613fc3565b82525050565b60006101a0830160008301516146ae6000860182614515565b5060208301516146c16060860182613a80565b50604083015184820360808601526146d98282614568565b915050606083015184820360a08601526146f382826145b2565b915050608083015184820360c086015261470d82826145b2565b91505060a083015184820360e08601526147278282614610565b91505060c083015161473d610100860182613d13565b5060e0830151614751610120860182614686565b50610100830151614766610140860182613d13565b5061012083015161477b610160860182613d13565b5061014083015184820361018086015261479582826145b2565b9150508091505092915050565b600060208201905081810360008301526147bc8184614695565b905092915050565b7f4769766561776179206973206e6f742066696e69736865640000000000000000600082015250565b60006147fa601883613d9a565b9150614805826147c4565b602082019050919050565b60006020820190508181036000830152614829816147ed565b9050919050565b7f4e487b7100000000000000000000000000000000000000000000000000000000600052601160045260246000fd5b600061486a826139bf565b9150614875836139bf565b925082820190508082111561488d5761488c614830565b5b92915050565b7f476976656177617927732074696d6520686173206e6f7420656e646564000000600082015250565b60006148c9601d83613d9a565b91506148d482614893565b602082019050919050565b600060208201905081810360008301526148f8816148bc565b9050919050565b7f52616e646f6d20776f726473206e6f742066756c66696c6c65642c207472792060008201527f616761696e2032206d696e75746573206c617465720000000000000000000000602082015250565b600061495b603583613d9a565b9150614966826148ff565b604082019050919050565b6000602082019050818103600083015261498a8161494e565b9050919050565b7f4e487b7100000000000000000000000000000000000000000000000000000000600052603260045260246000fd5b60006149cb826139bf565b91507fffffffffffffffffffffffffffffffffffffffffffffffffffffffffffffffff82036149fd576149fc614830565b5b600182019050919050565b600081549050919050565b600081905092915050565b60008190508160005260206000209050919050565b614a3c81613a6e565b82525050565b6000614a4e8383614a33565b60208301905092915050565b60008160001c9050919050565b600073ffffffffffffffffffffffffffffffffffffffff82169050919050565b6000614a9a614a9583614a5a565b614a67565b9050919050565b6000614aad8254614a87565b9050919050565b6000600182019050919050565b6000614acc82614a08565b614ad68185614a13565b9350614ae183614a1e565b8060005b83811015614b1957614af682614aa1565b614b008882614a42565b9750614b0b83614ab4565b925050600181019050614ae5565b5085935050505092915050565b6000614b328284614ac1565b915081905092915050565b7f4769766561776179206973206e6f74206c697665000000000000000000000000600082015250565b6000614b73601483613d9a565b9150614b7e82614b3d565b602082019050919050565b60006020820190508181036000830152614ba281614b66565b9050919050565b7f476976656177617927732074696d652068617320656e64656400000000000000600082015250565b6000614bdf601983613d9a565b9150614bea82614ba9565b602082019050919050565b60006020820190508181036000830152614c0e81614bd2565b9050919050565b7f47697665617761792069732066756c6c00000000000000000000000000000000600082015250565b6000614c4b601083613d9a565b9150614c5682614c15565b602082019050919050565b60006020820190508181036000830152614c7a81614c3e565b9050919050565b6000604082019050614c966000830185613d80565b614ca36020830184613d80565b9392505050565b7f4e487b7100000000000000000000000000000000000000000000000000000000600052602260045260246000fd5b60006002820490506001821680614cf157607f821691505b602082108103614d0457614d03614caa565b5b50919050565b7f4d7573742062652070726f706f736564206f776e657200000000000000000000600082015250565b6000614d40601683613d9a565b9150614d4b82614d0a565b602082019050919050565b60006020820190508181036000830152614d6f81614d33565b9050919050565b600081905092915050565b50565b6000614d91600083614d76565b9150614d9c82614d81565b600082019050919050565b6000614db282614d84565b9150819050919050565b7f4661696c656420746f2073656e64204574686572000000000000000000000000600082015250565b6000614df2601483613d9a565b9150614dfd82614dbc565b602082019050919050565b60006020820190508181036000830152614e2181614de5565b9050919050565b6000614e33826139bf565b9150614e3e836139bf565b9250828203905081811115614e5657614e55614830565b5b92915050565b7f4d617820746f74616c2077696e6e657273206d757374206e6f7420626520677260008201527f6561746572207468616e20313000000000000000000000000000000000000000602082015250565b6000614eb8602d83613d9a565b9150614ec382614e5c565b604082019050919050565b60006020820190508181036000830152614ee781614eab565b9050919050565b7f5072697a6520616d6f756e740000000000000000000000000000000000000000600082015250565b6000614f24600c83614d76565b9150614f2f82614eee565b600c82019050919050565b6000614f4582614f17565b9150819050919050565b7f4661696c656420746f2073656e64204176617800000000000000000000000000600082015250565b6000614f85601383613d9a565b9150614f9082614f4f565b602082019050919050565b60006020820190508181036000830152614fb481614f78565b9050919050565b60008190508160005260206000209050919050565b60006020601f8301049050919050565b600082821b905092915050565b60006008830261501d7fffffffffffffffffffffffffffffffffffffffffffffffffffffffffffffffff82614fe0565b6150278683614fe0565b95508019841693508086168417925050509392505050565b6000819050919050565b600061506461505f61505a846139bf565b61503f565b6139bf565b9050919050565b6000819050919050565b61507e83615049565b61509261508a8261506b565b848454614fed565b825550505050565b600090565b6150a761509a565b6150b2818484615075565b505050565b5b818110156150d6576150cb60008261509f565b6001810190506150b8565b5050565b601f82111561511b576150ec81614fbb565b6150f584614fd0565b81016020851015615104578190505b61511861511085614fd0565b8301826150b7565b50505b505050565b600082821c905092915050565b600061513e60001984600802615120565b1980831691505092915050565b6000615157838361512d565b9150826002028217905092915050565b61517082613d8f565b67ffffffffffffffff81111561518957615188613b74565b5b6151938254614cd9565b61519e8282856150da565b600060209050601f8311600181146151d157600084156151bf578287015190505b6151c9858261514b565b865550615231565b601f1984166151df86614fbb565b60005b82811015615207578489015182556001820191506020850194506020810190506151e2565b868310156152245784890151615220601f89168261512d565b8355505b6001600288020188555050505b505050505050565b61524281613d22565b82525050565b600060c08201905061525d6000830189613b34565b61526a6020830188613b34565b6152776040830187613b34565b81810360608301526152898186613dd5565b90506152986080830185613b34565b6152a560a0830184615239565b979650505050505050565b60006152bb82614a08565b6152c58185613a2d565b93506152d083614a1e565b8060005b83811015615308576152e582614aa1565b6152ef8882613a8f565b97506152fa83614ab4565b9250506001810190506152d4565b5085935050505092915050565b6000602082019050818103600083015261532f81846152b0565b905092915050565b7f52616e646f6d20776f726473206e6f742066756c66696c6c6564000000000000600082015250565b600061536d601a83613d9a565b915061537882615337565b602082019050919050565b6000602082019050818103600083015261539c81615360565b9050919050565b7f4e6f2077696e6e65727320796574000000000000000000000000000000000000600082015250565b60006153d9600e83613d9a565b91506153e4826153a3565b602082019050919050565b60006020820190508181036000830152615408816153cc565b9050919050565b7f596f75206861766520616c726561647920636c61696d656420796f757220707260008201527f697a650000000000000000000000000000000000000000000000000000000000602082015250565b600061546b602383613d9a565b91506154768261540f565b604082019050919050565b6000602082019050818103600083015261549a8161545e565b9050919050565b7f596f7520617265206e6f7420656c696769626c6520746f20636c61696d20746860008201527f6973207072697a65000000000000000000000000000000000000000000000000602082015250565b60006154fd602883613d9a565b9150615508826154a1565b604082019050919050565b6000602082019050818103600083015261552c816154f0565b9050919050565b7f4e487b7100000000000000000000000000000000000000000000000000000000600052601260045260246000fd5b600061556d826139bf565b9150615578836139bf565b92508261558857615587615533565b5b828204905092915050565b7f436c61696d696e67207072697a65000000000000000000000000000000000000600082015250565b60006155c9600e83614d76565b91506155d482615593565b600e82019050919050565b60006155ea826155bc565b9150819050919050565b7f72657175657374206e6f7420666f756e64000000000000000000000000000000600082015250565b600061562a601183613d9a565b9150615635826155f4565b602082019050919050565b600060208201905081810360008301526156598161561d565b9050919050565b600061566b826139bf565b9150615676836139bf565b92508261568657615685615533565b5b828206905092915050565b7f4f6e6c792063616c6c61626c65206279206f776e657200000000000000000000600082015250565b60006156c7601683613d9a565b91506156d282615691565b602082019050919050565b600060208201905081810360008301526156f6816156ba565b9050919050565b6000819050919050565b615710816156fd565b82525050565b61571f816144a8565b82525050565b61572e81614140565b82525050565b600060a0820190506157496000830188615707565b6157566020830187615716565b6157636040830186615725565b61577060608301856141d1565b61577d60808301846141d1565b9695505050505050565b600081519050615796816139c9565b92915050565b6000602082840312156157b2576157b16139b5565b5b60006157c084828501615787565b91505092915050565b7f43616e6e6f74207472616e7366657220746f2073656c66000000000000000000600082015250565b60006157ff601783613d9a565b915061580a826157c9565b602082019050919050565b6000602082019050818103600083015261582e816157f2565b9050919050565b7f4e487b7100000000000000000000000000000000000000000000000000000000600052603160045260246000fdfea26469706673582212203ce5104fc7564b4ebbbb4823774f0ba3e90c5dd8a231e1e98857b03b0d7c7af764736f6c63430008140033",
	"linkReferences": {},
	"deployedLinkReferences": {}
}